:060000000A128A11142906
:10000800F000030EF100031383120C181F200B19C4
:100018002A20031383128C181920031383128C10BF
:10002800710E8300F00E700E090021181D2821148E
:1000380008002110080003138312E1308F00031316
:1000480083127C308E00A00A0C100800462188100C
:10005800081176183328740887000815362875089B
:0A006800870088140130F606080036
:100200008A010A140F3982073F3406345B344F34B5
:1002100066346D347D3407347F346F3477347C3406
:1002200039345E34793471340317831688018901B7
:100230000313831685018601870188018901031351
:10024000831285018601870188014A2103138316E1
:1002500064309200031383123221211C39212118AA
:100260004121262920080F39F200200E0F39F30012
:10027000080072080021F40073080021F50008143A
:1002800008000030F400F50008100800FF3081007D
:100290000B110800031383160F138F160F120F1480
:1002A000031383128B178B160B11031383168C14F5
:1002B0000C14031383128C100C1003138316811279
:1002C0008111011481140115031383129016101665
:0E02D00090101014031383124E309200080099
:04400E00C430FF3F7C
:00000001FF
